:020000040000FA
:10000000680120204D010000510100005301000053
:1000100000000000000000000000000000000000E0
:10002000000000000000000000000000550100007A
:10003000000000000000000057010000590100000E
:100040005B0100005B0100005B0100005B01000040
:100050005B0100005B0100005B0100005B01000030
:10006000000000005B0100005B01000000000000D8
:10007000000000005B0100005B0100005B0100006C
:100080005B0100005B0100005B0100005B01000000
:100090005B0100005B0100000000000000000000A8
:1000A0005B0100005B010000000000000000000098
:1000B0005B010000000000005B0100005B0100002C
:1000C00000F002F800F032F80CA030C8083824180C
:1000D0002D18671EA246AB4654465D46AC4201D180
:1000E00000F024F87E460F3EB6460FCC0126334280
:1000F00000D0FB1A3343A246AB461847A4020000C7
:10010000B4020000000000000023002400250026A7
:10011000103A01D378C1FBD8520700D330C100D5C3
:100120000B6070471FB51FBD10B510BD00F027F85C
:100130001146FFF7F7FF00F01FF900F03FF803B496
:10014000FFF7F2FF03BC00F045F800000648004747
:10015000FEE7FEE7FEE7FEE7FEE7FEE703480449A9
:10016000024A044B70470000C100000068002020D4
:10017000680120206800202070477047704775464E
:1001800000F024F8AE46050069465346C008C0009A
:10019000854618B020B5FFF7E1FF60BCB6460026E3
:1001A0000027C0C5C0C5C0C5C0C5C0C5C0C5C0C585
:1001B000C0C5403D490849008D46704710B504460A
:1001C000C046C0462046FFF7BAFF10BD0048704742
:1001D0000000202001491820ABBEFEE726000200E7
:1001E0007047000080B500F065F800F04BF800F0B3
:1001F00047F800F04AF81F480021017080BDC04652
:10020000B0B504461B4D2878032819D878440079E6
:1002100040008744011C0623012C23D101202870B3
:10022000B0BD00F02EF800F046F800F02DF8042CD8
:100230001CD0022C16D100F026F803202870B0BD87
:1002400000F021F8052C0DD1002028700AE0022CC6
:1002500009D0032C06D102202870B0BD052C02D095
:10026000012CF8D0B0BD00202870B0BD042028704B
:10027000B0BDC0466100202080B500F03FF880BDD1
:10028000704770477047704770477047811E091F5D
:1002900000BFFCD270470000054800210170704784
:1002A000034800787047C04601480021017070473C
:1002B0006000202070477047704700000D48002103
:1002C00001600320C1430C48021F13680B401360F8
:1002D0004168012291434160110242688A434260B1
:1002E000016830229143016001680F22914301604F
:1002F0007047C04608030B4004010B4080B500F076
:1003000005F8FFF7D9FFFFF7D9FF80BD80B5064894
:1003100006494160064A516006490160116010209B
:10032000FFF7B4FF80BDC04600080A40030000B1DB
:1003300000280A40010000260E4800210170704785
:100340000C490A78012A06D0002A0BD101280DD1C8
:10035000012008707047042809D0022806D1002027
:1003600008707047052801D10020087070470220EE
:100370000870704762002020FFF77EFFFFF794FFB0
:10038000FFF730FFFFF7D8FFFFF78AFF0446FFF7BC
:1003900037FF2046FFF7D4FFFFF77EFFF4E70000AA
:1003A000B0030000000020206801000008010000E8
:04000005000000C136
:00000001FF
