:020000040000FA
:10000000D80220204D0100005101000053010000E2
:1000100000000000000000000000000000000000E0
:10002000000000000000000000000000550100007A
:10003000000000000000000057010000590100000E
:100040005B0100005B0100005B0100005B01000040
:100050005B0100005B0100005B0100005B01000030
:10006000000000005B0100005B01000000000000D8
:10007000000000005B0100005B0100005B0100006C
:100080005B0100005B0100005B0100005B01000000
:100090005B0100005B0100000000000000000000A8
:1000A0005B0100005B010000000000000000000098
:1000B0005B010000000000005B0100005B0100002C
:1000C00000F002F800F032F80CA030C8083824180C
:1000D0002D18671EA246AB4654465D46AC4201D180
:1000E00000F024F87E460F3EB6460FCC0126334280
:1000F00000D0FB1A3343A246AB461847B4090000B0
:10010000C409000000000000002300240025002690
:10011000103A01D378C1FBD8520700D330C100D5C3
:100120000B6070471FB51FBD10B510BD00F027F85C
:100130001146FFF7F7FF00F061FB00F03FF803B452
:10014000FFF7F2FF03BC00F045F800000648004747
:10015000FEE7FEE7FEE7FEE7FEE7FEE703480449A9
:10016000024A044B70470000C1000000D801202063
:10017000D8022020D801202070477047704775466C
:1001800000F024F8AE46050069465346C008C0009A
:10019000854618B020B5FFF7E1FF60BCB6460026E3
:1001A0000027C0C5C0C5C0C5C0C5C0C5C0C5C0C585
:1001B000C0C5403D490849008D46704710B504460A
:1001C000C046C0462046FFF7BAFF10BD0048704742
:1001D0000000202001491820ABBEFEE726000200E7
:1001E000704780B500F0D4FA80BD0000F0B581B052
:1001F0000446012041049E4A11600103116141033C
:10020000116081031161C00310609A4806689A4822
:1002100006400027002E394608D06421642C204671
:1002200000D30846704300F03BFB311A9348066840
:100230000568914805400AD000916421642C00D3E0
:100240000C466C43204600F02BFB471B0099954859
:100250000124224600F0E8F987480640B91992487F
:10026000224600F0E1F901B0F0BDC046F0B581B022
:100270000446012041047E4A1160010311604103DC
:10028000116181031160C003106162206043642525
:10029000294600F005FB06466320444320462946D4
:1002A00000F0FEFA044673480768734807400AD016
:1002B000B0B2642800D32E467E433046294600F073
:1002C000EFFA391A00E000216C48056807687548A4
:1002D0000126324600F0A8F9A0B26421642800D3B8
:1002E0000C46654807407C43204600F0D9FA624935
:1002F0000D40002F01D0C01B2D186B4829463246F7
:1003000000F092F901B0F0BDF0B581B01348812141
:10031000016041608160C16041612F200603634F2D
:100320003E630F48022101600E4801600E480168DB
:100330000124214301600D48016821430160E64822
:1003400000252946224600F06FF9574829462246E3
:1003500000F06AF93E6001B0F0BDC04688804240BE
:1003600000318640001186400438864004188640DB
:10037000F0B581B00446012041043D4A11600103FB
:1003800011614103116081031160C003106139489C
:100390000668394806400027002E394608D06421F7
:1003A000642C204600D30846704300F079FA311AD5
:1003B000324806680568304805400AD0009164213B
:1003C000642C00D30C466C43204600F069FA471BAE
:1003D0000099C1480124224600F026F9264806402B
:1003E000B919D748224600F01FF901B0F0BDC04648
:1003F000F0B581B00446012041041D4A116001039B
:1004000011604103116181031161C003106019483B
:100410000668194806400027002E394608D0642196
:10042000642C204600D30846704300F039FA311A94
:10043000124806680568104805400AD000916421FA
:10044000642C00D30C466C43204600F029FA471B6D
:100450000099A1480124224600F0E6F8064806402B
:10046000B919B748224600F0DFF801B0F0BDC04628
:1004700090120A4008388640FFFFFF0008188640A7
:10048000B0B595480024012521462A4600F0CCF855
:10049000AB4821462A4600F0C7F82F200003034945
:1004A0000860B0BD0020864000008640A0120A40CF
:1004B000811E091F00BFFCD27047000070B582B0DA
:1004C0000B794A79002A24D0174A21242401202BB1
:1004D00000D070348218002B00D18824156C404E57
:1004E00035402D191564556C35402C195464146829
:1004F0003E4D2C40146054682C405460002414621B
:1005000054628F24E443156D25401565556D2540D3
:1005100055656A4613718B795371096800911146CC
:1005200000F004F802B070BD38180000F0B52A4A97
:1005300082182A4BC318087920280DD000281DD115
:100540000C68641E5460D56E254C25408835D566F0
:100550001646703688251DE00C68641E5460D46E03
:100560001F4D2C401F4EA419D466146F2C40A419A3
:100570001467012465071C4C16460BE00C686408E0
:100580005460D66E164C26400525ED017619D666C8
:1005900016467036376827402F433760D46A134DAC
:1005A0002C40D462146B2C4014630024D464146572
:1005B0008F24E443D56F2540D5671D6825401D6015
:1005C00049790143BD2008401168094B0B40C01810
:1005D000801C1060F0BDC0460418000084180000A4
:1005E00024493E0001040000FFFFFFCF8888FDFF83
:1005F0004000FFCF10B507239B04194092008018DC
:10060000024A84589C436118815010BD3018000084
:1006100010B5029CA400001911431943014A8150EE
:1006200010BDC0465018000092008018014A815049
:100630007047C0461018000010B50122120383183D
:100640000C789C604B7883508978014A815010BDAA
:100650000C11000007488421C162074A022313607D
:10066000016006490B60852101670120400310608D
:100670007047C04608804240D0320A40D0120A403B
:1006800070B582B0144C15492046FFF7D5FF1449C8
:100690002046FFF713FF7D20C100012520462A4692
:1006A000FFF7C2FF0095002620463146324633460A
:1006B000FFF7AEFF204631462A46FFF79BFF094869
:1006C00001461C390D600146243902220A60016886
:1006D0002943016002B070BD00208640960A0000E8
:1006E0009C0A00002431864070B582B0144C154934
:1006F0002046FFF7A1FF14492046FFF7DFFE7D20CB
:10070000C100012520462A46FFF78EFF00950026EE
:100710002046314632463346FFF77AFF20463146BF
:100720002A46FFF767FF094801461C390D6001465C
:10073000243902220A6001682943016002B070BDB9
:1007400000008640A40A0000A80A00002411864088
:100750000D48002101600320C1430C48021F1368AB
:100760000B401360416801229143416011024268CD
:100770008A434260016830229143016001680F2280
:10078000914301607047C04608030B4004010B40D1
:1007900080B500F013F8FFF75DFFFFF7D9FFFFF713
:1007A0006FFFFFF7A1FFB820024900220A54024957
:1007B0000A5480BD1C0120206000202010B509488B
:1007C00009494160094A5160094B5960094C61600F
:1007D000094901601160196021601020FFF768FE6F
:1007E00010BDC04600080A40030000B100280A40BE
:1007F000002886400008864001000026FFF7F1FC33
:10080000FFF782FD1E20FFF731FD7D200402234DFE
:100810002E462046FFF74CFE761CFAD3FFF730FE3B
:10082000C720C64337462046FFF742FE7F1CFAD357
:100830001E20FFF7DBFC2F462046FFF739FE7F1C0A
:10084000FAD3FFF71DFE37462046FFF731FE7F1C27
:10085000FAD31E20FFF78CFD2F462046FFF728FE17
:100860007F1CFAD3FFF70CFE37462046FFF720FE29
:100870007F1CFAD31E20FFF7BBFD2046FFF718FEB2
:100880006D1CFAD3FFF7FCFD2046FFF711FE761C26
:10089000FAD3FFF7F5FD30BFFDE7C04648F4FFFF90
:1008A00043088B421AD3002203098B4279D3030AEF
:1008B0008B425ED3030B8B4242D3030C8B4227D374
:1008C0000902FF2212BA030C8B4202D31212090250
:1008D00003D0030B8B4233D31AE0D3E0411A80419B
:1008E000401C704703460B4371D443088B42F5D339
:1008F000002203098B4254D3030A8B4239D3030BE2
:100900008B421DD3030C8B4202D394466EE0090A3E
:10091000C30B8B4201D3CB03C01A5241830B8B42D2
:1009200001D38B03C01A5241430B8B4201D34B03BB
:10093000C01A5241030B8B4201D30B03C01A524120
:10094000C30A8B4201D3CB02C01A5241830A8B42A5
:1009500001D38B02C01A5241430A8B4201D34B028E
:10096000C01A5241030A8B4201D30B02C01A5241F2
:10097000CDD2C3098B4201D3CB01C01A52418309A6
:100980008B4201D38B01C01A524143098B4201D3E0
:100990004B01C01A524103098B4201D30B01C01A0B
:1009A0005241C3088B4201D3CB00C01A5241830885
:1009B0008B4201D38B00C01A524143088B4201D3B2
:1009C0004B00C01A5241411A524110007047CA0FE1
:1009D00000D04942031000D34042534000229C46BD
:1009E00003098B422DD3030A8B4212D38901FC22C7
:1009F00012BA030A8B420CD3890192118B4208D39D
:100A0000890192118B4204D3890137D0921100E001
:100A10008909C3098B4201D3CB01C01A5241830912
:100A20008B4201D38B01C01A524143098B4201D33F
:100A30004B01C01A524103098B4201D30B01C01A6A
:100A40005241C3088B4201D3CB00C01A52418308E4
:100A50008B4201D38B00C01A5241D9D243088B423A
:100A600001D34B00C01A5241411A00D201465241F3
:100A7000104663465B1000D34042704763465B10EC
:100A800000D3404201B50021004201D0C9430846CD
:100A9000C046C04602BD080703000000E80300008E
:100AA0000000000008070300E80300000001000048
:100AB000C00A000000002020D80200000801000049
:04000005000000C136
:00000001FF
