:020000040000FA
:10000000D80220204D0100005101000053010000E2
:1000100000000000000000000000000000000000E0
:10002000000000000000000000000000550100007A
:10003000000000000000000057010000590100000E
:100040005B0100005B0100005B0100005B01000040
:100050005B0100005B0100005B0100005B01000030
:10006000000000005B0100005B01000000000000D8
:10007000000000005B0100005B0100005B0100006C
:100080005B0100005B0100005B0100005B01000000
:100090005B0100005B0100000000000000000000A8
:1000A0005B0100005B010000000000000000000098
:1000B0005B010000000000005B0100005B0100002C
:1000C00000F002F800F032F80CA030C8083824180C
:1000D0002D18671EA246AB4654465D46AC4201D180
:1000E00000F024F87E460F3EB6460FCC0126334280
:1000F00000D0FB1A3343A246AB4618478C090000D8
:100100009C090000000000000023002400250026B8
:10011000103A01D378C1FBD8520700D330C100D5C3
:100120000B6070471FB51FBD10B510BD00F027F85C
:100130001146FFF7F7FF00F04BFB00F03FF803B468
:10014000FFF7F2FF03BC00F045F800000648004747
:10015000FEE7FEE7FEE7FEE7FEE7FEE703480449A9
:10016000024A044B70470000C1000000D801202063
:10017000D8022020D801202070477047704775466C
:1001800000F024F8AE46050069465346C008C0009A
:10019000854618B020B5FFF7E1FF60BCB6460026E3
:1001A0000027C0C5C0C5C0C5C0C5C0C5C0C5C0C585
:1001B000C0C5403D490849008D46704710B504460A
:1001C000C046C0462046FFF7BAFF10BD0048704742
:1001D0000000202001491820ABBEFEE726000200E7
:1001E000704780B500F0BEFA80BD0000F0B581B068
:1001F000044601204104964A116001031161410344
:10020000116081031160C003106192480768924930
:100210000F400025002F2E4609D06421642C204673
:1002200000D30846784300F025FB3E1A8A498B48E4
:1002300007680F4008D06421642C00D30C467C432F
:10024000204600F017FB3D1A8E4801243146224615
:1002500000F0DAF98C482946224600F0D5F901B0C1
:10026000F0BDC046F0B581B0044601204104784A93
:100270001160010311604103116181031161C00329
:100280001060622060436425294600F0F3FA0646B8
:10029000632044432046294600F0ECFA04466D48AA
:1002A00007686D4807400AD0B0B2642800D32E46D4
:1002B0007E433046294600F0DDFA391A00E000217D
:1002C000664805686F480126324600F09DF9A0B2E5
:1002D0006421642800D30C465F4805406C432046E7
:1002E00000F0C8FA002D00D02D1A67482946324682
:1002F00000F08AF901B0F0BDF0B581B0134881215A
:10030000016041608160C16041612F2006035F4F41
:100310003E630F48022101600E4801600E480168EB
:100320000124214301600D48016821430160DF4839
:1003300000252946224600F067F9534829462246FF
:1003400000F062F93E6001B0F0BDC04688804240D6
:1003500000318640001186400438864004188640EB
:10036000F0B581B0044601204104394A116001030F
:1003700011614103116081031161C00310603548B0
:10038000076835490F400025002F2E4609D064210B
:10039000642C204600D30846784300F06BFA3E1ADE
:1003A0002D492E4807680F4008D06421642C00D3E3
:1003B0000C467C43204600F05DFA3D1ABB48012400
:1003C0003146224600F020F9D2482946224600F064
:1003D0001BF901B0F0BDC046F0B581B00446012064
:1003E00041041B4A11600103116041031161810343
:1003F0001160C00310611748076817490F400025B6
:10040000002F2E4609D06421642C204600D30846D4
:10041000784300F02FFA3E1A0F49104807680F4042
:1004200008D06421642C00D30C467C43204600F0A5
:1004300021FA3D1A9D4801243146224600F0E4F895
:10044000B4482946224600F0DFF801B0F0BDC046AE
:1004500090120A4008388640FFFFFF0008188640C7
:10046000B0B592480024012521462A4600F0CCF878
:10047000A84821462A4600F0C7F82F200003034968
:100480000860B0BD0020864000008640A0120A40EF
:10049000811E091F00BFFCD27047000070B582B0FA
:1004A0000B794A79002A24D0174A21242401202BD1
:1004B00000D070348218002B00D18824156C404E77
:1004C00035402D191564556C35402C195464146849
:1004D0003E4D2C40146054682C405460002414623B
:1004E00054628F24E443156D25401565556D2540F4
:1004F00055656A4613718B795371096800911146ED
:1005000000F004F802B070BD38180000F0B52A4AB7
:1005100082182A4BC318087920280DD000281DD135
:100520000C68641E5460D56E254C25408835D56610
:100530001646703688251DE00C68641E5460D46E23
:100540001F4D2C401F4EA419D466146F2C40A419C3
:100550001467012465071C4C16460BE00C68640800
:100560005460D66E164C26400525ED017619D666E8
:1005700016467036376827402F433760D46A134DCC
:100580002C40D462146B2C4014630024D464146592
:100590008F24E443D56F2540D5671D6825401D6035
:1005A00049790143BD2008401168094B0B40C01830
:1005B000801C1060F0BDC0460418000084180000C4
:1005C00024493E0001040000FFFFFFCF8888FDFFA3
:1005D0004000FFCF10B507239B04194092008018FC
:1005E000024A84589C436118815010BD30180000A5
:1005F00010B5029CA400001911431943014A81500F
:1006000010BDC0465018000092008018014A815069
:100610007047C0461018000010B50122120383185D
:100620000C789C604B7883508978014A815010BDCA
:100630000C11000010B5054885210160012213044A
:10064000034C236041629005206010BD98804240B9
:10065000D0120A4070B582B0144C15492046FFF7FD
:10066000DBFF14492046FFF719FF7D20C10001255B
:1006700020462A46FFF7C8FF00950026204631464F
:1006800032463346FFF7B4FF204631462A46FFF78D
:10069000A1FF094801461C390D6001462439022298
:1006A0000A6001682943016002B070BD00208640E5
:1006B0006A0A0000700A00002431864070B582B0DA
:1006C000144C15492046FFF7A7FF14492046FFF7B1
:1006D000E5FE7D20C100012520462A46FFF794FF54
:1006E000009500262046314632463346FFF780FF0C
:1006F000204631462A46FFF76DFF094801461C395E
:100700000D600146243902220A6001682943016014
:1007100002B070BD00008640780A00007C0A00002C
:10072000241186400D48002101600320C1430C487C
:10073000021F13680B40136041680122914341601E
:10074000110242688A43426001683022914301608D
:1007500001680F22914301607047C04608030B40B7
:1007600004010B4080B500F013F8FFF763FFFFF7BB
:10077000D9FFFFF76FFFFFF7A1FFB8200249002262
:100780000A5402490A5480BD1C0120206000202028
:1007900010B5094809494160094A5160094B59603F
:1007A000094C6160094901601160196021601020E5
:1007B000FFF76EFE10BDC04600080A40030000B1FE
:1007C00000280A40002886400008864001000026D4
:1007D000FFF707FDFFF790FD6420FFF743FD7D2045
:1007E0000402234D2E462046FFF752FE761CFAD314
:1007F000FFF736FEC720C64337462046FFF748FEC0
:100800007F1CFAD36420FFF7F1FC2F462046FFF748
:100810003FFE7F1CFAD3FFF723FE37462046FFF743
:1008200037FE7F1CFAD36420FFF79AFD2F4620463F
:10083000FFF72EFE7F1CFAD3FFF712FE3746204645
:10084000FFF726FE7F1CFAD36420FFF7C5FD204684
:10085000FFF71EFE6D1CFAD3FFF702FE2046FFF7DE
:1008600017FE761CFAD3FFF7FBFD30BFFDE7C0464D
:1008700048F4FFFF43088B421AD3002203098B423E
:1008800079D3030A8B425ED3030B8B4242D3030C12
:100890008B4227D30902FF2212BA030C8B4202D3E8
:1008A0001212090203D0030B8B4233D31AE0D3E0B8
:1008B000411A8041401C704703460B4371D44308E2
:1008C0008B42F5D3002203098B4254D3030A8B4297
:1008D00039D3030B8B421DD3030C8B4202D39446B6
:1008E0006EE0090AC30B8B4201D3CB03C01A5241FD
:1008F000830B8B4201D38B03C01A5241430B8B42B3
:1009000001D34B03C01A5241030B8B4201D30B039B
:10091000C01A5241C30A8B4201D3CB02C01A5241C2
:10092000830A8B4201D38B02C01A5241430A8B4285
:1009300001D34B02C01A5241030A8B4201D30B026E
:10094000C01A5241CDD2C3098B4201D3CB01C01A88
:10095000524183098B4201D38B01C01A5241430992
:100960008B4201D34B01C01A524103098B4201D380
:100970000B01C01A5241C3088B4201D3CB00C01AED
:10098000524183088B4201D38B00C01A5241430865
:100990008B4201D34B00C01A5241411A5241100000
:1009A0007047CA0F00D04942031000D34042534061
:1009B00000229C4603098B422DD3030A8B4212D39B
:1009C0008901FC2212BA030A8B420CD389019211CD
:1009D0008B4208D3890192118B4204D3890137D00D
:1009E000921100E08909C3098B4201D3CB01C01ADF
:1009F000524183098B4201D38B01C01A52414309F2
:100A00008B4201D34B01C01A524103098B4201D3DF
:100A10000B01C01A5241C3088B4201D3CB00C01A4C
:100A2000524183088B4201D38B00C01A5241D9D264
:100A300043088B4201D34B00C01A5241411A00D2E5
:100A400001465241104663465B1000D34042704756
:100A500063465B1000D3404201B50021004201D043
:100A6000C9430846C046C04602BD0807030000004F
:100A7000E80300000000000008070300E80300008E
:100A80000001000000000000980A00000000202083
:080A9000D8020000080100007B
:04000005000000C136
:00000001FF
